:100000000C945E000C9470000C9470000C947000C2
:100010000C9470000C9470000C9470000C947000A0
:100020000C9470000C9470000C9470000C94700090
:100030000C9470000C9470000C9470000C94700080
:100040000C943A010C9470000C9470000C947000A5
:100050000C9470000C9470000C9470000C94700060
:100060000C9470000C947000000000080002010065
:100070000003040700000000000000000000000072
:1000800000250028002B0000000000240027002A83
:100090000004040404040404040202020202020331
:1000A000030303030302010204081020408001023D
:1000B00004081020010204081020800011241FBE33
:1000C000CFEFD4E0DEBFCDBF21E0A0E0B1E001C0C2
:1000D0001D92A930B207E1F70E9484010C94E80157
:1000E0000C94000090E0FC01EA55FF4F2491FC01C4
:1000F000EF56FF4F8491882399F090E0880F991F65
:10010000FC01E957FF4FA591B491FC01E358FF4F63
:10011000859194918FB7F894EC91E22BEC938FBF7B
:10012000089590E0FC01E859FF4F3491FC01EA5535
:10013000FF4F2491FC01EF56FF4FE491EE2309F4A9
:100140003BC0332339F1333091F038F43130A9F02A
:10015000323001F584B58F7D12C0373091F03830E0
:10016000A1F03430B9F4809180008F7D03C080917C
:1001700080008F77809380000DC084B58F7784BD19
:1001800009C08091B0008F7703C08091B0008F7D4F
:100190008093B000F0E0EE0FFF1FE358FF4FA591F2
:1001A000B4918FB7F894EC91611103C020952E2380
:1001B00001C02E2B2C938FBF08953FB7F8948091E8
:1001C000050190910601A0910701B091080126B5A3
:1001D000A89B05C02F3F19F00196A11DB11D3FBF7F
:1001E000BA2FA92F982F8827820F911DA11DB11D0D
:1001F000BC01CD0142E0660F771F881F991F4A9509
:10020000D1F708958F929F92AF92BF92CF92DF92D3
:10021000EF92FF920E94DD004B015C0188EEC82E38
:1002200083E0D82EE12CF12C0E94DD00DC01CB0113
:1002300088199909AA09BB09883E9340A105B1050F
:1002400058F021E0C21AD108E108F10888EE880EC2
:1002500083E0981EA11CB11CC114D104E104F10477
:1002600019F7FF90EF90DF90CF90BF90AF909F90E5
:100270008F9008951F920F920FB60F9211242F9313
:100280003F938F939F93AF93BF9380910101909180
:100290000201A0910301B09104013091000123E01B
:1002A000230F2D3720F40196A11DB11D05C026E8AE
:1002B000230F0296A11DB11D20930001809301011F
:1002C00090930201A0930301B09304018091050172
:1002D00090910601A0910701B09108010196A11D1E
:1002E000B11D8093050190930601A0930701B0937F
:1002F0000801BF91AF919F918F913F912F910F90E6
:100300000FBE0F901F901895789484B5826084BDBD
:1003100084B5816084BD85B5826085BD85B5816009
:1003200085BD80916E00816080936E001092810087
:100330008091810082608093810080918100816042
:100340008093810080918000816080938000809103
:10035000B10084608093B1008091B000816080938F
:10036000B00080917A00846080937A0080917A0056
:10037000826080937A0080917A00816080937A0015
:1003800080917A00806880937A001092C10081E1A8
:100390000E9472008DE00E947200C0E0D0E061E037
:1003A00081E10E94910061E08DE00E9491000E9435
:1003B000020160E081E10E94910060E08DE00E9416
:1003C00091000E940201209751F30E940000E7CFA4
:0403D000F894FFCFCF
:103E00001F92CDB7DEB7112484B714BE982F9D70D2
:103E100009F0D6D085E08093810082E08093C000D5
:103E200088E18093C10086E08093C20082E28093A3
:103E3000C4008EE0B0D0259A26E080E39CEF31E00C
:103E4000909385008093840036BBB09BFECF1D9A73
:103E5000A8952150A9F7812C912C93E0F92EEE24FE
:103E6000E39425E0D22E31E1C32E89D0813471F460
:103E700086D0898396D08981823811F482E004C08B
:103E8000813809F46BC083E073D06FC0823411F4C1
:103E900084E103C0853419F485E08BD066C0853594
:103EA00041F46DD0882E6BD0912C982A880C991CE7
:103EB0005BC0863521F484E07CD080E0E5CF843699
:103EC00009F036C05CD05BD0B82E59D0A82E00E0E7
:103ED00011E055D0F80181938F01BE12FACF61D065
:103EE000F5E4AF1201C0FFCFF401F7BEE89507B6C5
:103EF00000FCFDCFB401A0E0B1E02C911296AD0121
:103F000041505109FA01808130E0382BFB01090151
:103F1000E7BEE89511246E5F7F4FBA12EECFF40131
:103F2000D7BEE89507B600FCFDCFC7BEE8951DC01B
:103F3000843769F424D023D0B82E21D032D0840124
:103F4000F80185918F0114D0BA94D1F70EC085374E
:103F500039F427D08EE10CD084E90AD086E094CFE2
:103F6000813511F488E017D01CD080E101D07DCFDD
:103F70009091C00095FFFCCF8093C600089580917A
:103F8000C00087FFFCCF8091C00084FD01C0A895D0
:103F90008091C6000895E0E6F0E098E19083808388
:103FA0000895EDDF803219F088E0F5DFFFCF84E17E
:103FB000DFCFCF93C82FE3DFC150E9F7CF91F1CF27
:0C3FC000282E80E0E8DFE0E0FF270994F5
:023FFE000206B9
:0400000300003E00BB
:00000001FF
