:100000000C942A000C9434000C9434000C943400AA
:100010000C9434000C9434000C9434000C94340090
:100020000C9434000C9434000C9434000C94340080
:100030000C9434000C9434000C9434000C94340070
:100040000C9434000C9434000C9434000C94340060
:100050000C94340011241FBECFE5D8E0DEBFCDBF25
:100060000E9436000C9455000C94000081E08ABB7D
:1000700084E087BB21E094E08BB382278BBB3FE712
:1000800049EA83E0315040408040E1F700C0000081
:1000900088B3892788BB3FE749EA83E03150404075
:0E00A0008040E1F700C00000E7CFF894FFCFEA
:00000001FF
